:100000000C94C1040C94F2040C94F2040C94F204C9
:100010000C94F2040C94F2040C94F2040C94F20488
:100020000C94F2040C94F2040C94F2040C94F20478
:100030000C94F2040C94F2040C94F2040C94F20468
:100040000C94F2040C94F2040C94F2040C94F20458
:100050000C94F2040C94F2040C94F2040C94090B2A
:100060000C94F2040C947D0B0C94530B0C94F2043E
:100070000C94F2040C94F2040C94F2040C94F20428
:100080000C94F2040C94F2040C94F2040C94F20418
:100090000C94F2040C94F2040C94F2040C94F20408
:1000A0000C94F2040C94F2040C94F2040C94F204F8
:1000B0000C94F2040C94F2040C94F2040C94F204E8
:1000C0000C94F2040C94F2040C94F2040C94F204D8
:1000D0000C94F2040C94F2040C94F2040C94F204C8
:1000E0000C94F2040C94AF0F0C94AE0E0C945C05BF
:1000F0000C943C070C9460050C9458050C94290E44
:100100000C94850F0C9424050C9474050C94AB0E80
:100110000C949F0F0C9497060C944E050C94840E2F
:100120000C9478050C9441050C9445050C946606D6
:100130000C9452050C9439050C9466050C943D05FD
:100140000C94500F0C94C20F0C94CF060C944805DD
:100150000C94B50E0C9439060C94450F0C946E0556
:100160000C946A050C9489060C9475060C94290568
:10017000535420002070696E732069646C652048B8
:10018000494748202D206E6F7468696E6720636F41
:100190006E6E65637465642070756C6C696E672043
:1001A0007468656D20646F776E002020616C6C2030
:1001B00000732061676F0020202020202020006D28
:1001C00073002D002020204C4F572020002020209D
:1001D00048494748200020202020202000202000DF
:1001E00020204400202070696E20207374617465A3
:1001F0002020656467657320206D696E50756C738F
:100200006520206C6173744368616E6765002D2DF5
:10021000206469676974616C202D2D0020203C2DBD
:10022000206E6F6973792F6368616E67696E67000E
:10023000202020002020200020202000202020003E
:1002400020200020204100202063682020206E6FA5
:10025000772020206D696E2020206D61782020207D
:10026000206176672020207377696E67002D2D202E
:10027000616E616C6F67202D2D0073203D3D3D3D0B
:100280003D003D3D3D3D3D20736E617073686F7470
:10029000204020005761746368696E6720666F7242
:1002A0002065646765732E20546F75636820612034
:1002B00070696E20746F20474E4420746F20736500
:1002C0006520697420666972652E002D2D2D2D2DF7
:1002D0002D2D2D2D2D2D2D2D2D2D2D2D2D2D2D2D4E
:1002E0002D2D2D2D2D2D2D2D2D2D2D2D2D2D2D2D3E
:1002F0002D2D2D2D2D2D2D2D2D2D2D2D2D00206332
:100300006F6D6D616E64733A20683D68656C702036
:10031000733D736E617073686F7420723D726573A4
:10032000657420643D6469676974616C20613D6136
:100330006E616C6F670020736B6970706564203A42
:100340002044302F4431202D2055534220736572B4
:1003500069616C0020616E616C6F6720203A2041FA
:10036000302E2E4131352028686967682D5A2C209F
:10037000302E2E313032332900202028494E50555E
:10038000545F50554C4C5550202D20756E636F6E48
:100390006E656374656420726561647320484947C3
:1003A0004829002E2E4400206469676974616C201E
:1003B0003A2044003D3D3D3D3D3D3D3D3D3D3D3DC3
:1003C0003D3D3D3D3D3D3D3D3D3D3D3D3D3D3D3D5D
:1003D0003D3D3D3D3D3D3D3D3D3D3D3D3D3D3D3D4D
:1003E0003D3D3D3D3D3D00202D2041726475696ECF
:1003F0006F204D656761203235363020492F4F2000
:100400007369676E616C2064656275676765720009
:10041000312E312E300020494F446562756720002F
:100420003D3D3D3D3D3D3D3D3D3D3D3D3D3D3D3DFC
:100430003D3D3D3D3D3D3D3D3D3D3D3D3D3D3D3DEC
:100440003D3D3D3D3D3D3D3D3D3D3D3D3D3D3D3DDC
:100450003D3D00323032362D30382D333000312ED4
:10046000312E3000465720494F44656275672000A1
:100470002020612020746F67676C6520616E616C5D
:100480006F67207265706F7274696E6700202064F8
:100490002020746F67676C65206469676974616C9C
:1004A000207265706F7274696E6700202072202060
:1004B000726573657420616C6C20636F756E746512
:1004C000727320616E6420737461746973746963FC
:1004D000730020207720207761746368206D6F643B
:1004E00065202D20656D697420275354203C6D7361
:1004F0003E203C6D61736B3E27206F6E20657665F4
:1005000072792070696E206368616E6765002020D3
:100510007A2020746F67676C6520494E5055545F90
:1005200050554C4C5550203C2D3E20494E50555472
:1005300020686967682D5A20287573652068696787
:10054000682D5A206F6E206C697665207769726914
:100550006E672900202070202063686172616374D7
:1005600065726973652065766572792070696E20A1
:1005700028726561642D6F6E6C792C206E657665CE
:10058000722064726976657320612070696E29003B
:1005900020207320207072696E7420612066756C53
:1005A0006C20736E617073686F74206E6F770020BB
:1005B00020682020746869732068656C70000A2DBB
:1005C0002D20636F6D6D616E6473202D2D002020D2
:1005D000776974686F75742064726976696E6720D4
:1005E0007468656D2C207768696368206973206E74
:1005F0006F7420646F6E6520686572652E00202020
:1006000050696E732072656164696E67204849475E
:10061000482061726520696E64697374696E6775DC
:1006200069736861626C652066726F6D20756E63B8
:100630006F6E6E6563746564002070696E73206808
:1006400061766520736F6D657468696E672061748B
:100650007461636865642070756C6C696E67207482
:1006600068656D20646F776E2E00206F6620002015
:10067000202D3E2000666C69636B6572732020201C
:100680006E6F697365202D204143207069636B751F
:1006900070206F6E20616E206F70656E2D656E64C8
:1006A000656420776972650068656C64202020208D
:1006B0002020205749524544202D20612072656139
:1006C0006C206C6F616420686F6C647320697420A7
:1006D000646F776E0020202020204C4F5720202070
:1006E000202020200020204400202070696E20203F
:1006F0002070756C6C65642D7570202020686967AA
:10070000682D5A20202076657264696374003D3D2F
:100710003D3D3D2070696E20636861726163746560
:100720007269736174696F6E2028726561642D6FE0
:100730006E6C792C206E65766572206472697665C0
:100740007329203D3D3D3D3D004F4646004F4E0044
:10075000616E616C6F67207265706F7274696E672D
:1007600020004F4646004F4E006469676974616C13
:10077000207265706F7274696E672000494E505523
:100780005420686967682D5A202873616665737400
:10079000206F6E206C69766520776972696E6729B3
:1007A00000494E5055545F50554C4C5550202864CC
:1007B000657465637473206C6F6164732900696E7E
:1007C000707574206D6F6465206E6F7720004F46E2
:1007D00046004F4E202D20656D697474696E672048
:1007E0005354206C696E6573206F6E206576657258
:1007F00079206368616E6765007761746368206D56
:100800006F6465200073746174732072657365741E
:10081000002020203C2D20424F554E43453F0020D4
:100820002048494748202D3E204C4F570020204C5F
:100830004F57202D3E2048494748006D7320202007
:1008400065646765733D0020202068656C643D0029
:100850006D7320204400454447452020743D00002E
:10086000002200250028002B002E00310034000259
:10087000010000050108010B0100002100240027F0
:10088000002A002D003000330001010000040107A0
:10089000010A01000020002300260029002C002F5F
:1008A00000320000010000030106010901050505F1
:1008B00005070508080808020202020A0A080804D7
:1008C0000404040101010101010101030303030305
:1008D000030303040707070C0C0C0C0C0C0C0C0294
:1008E00002020206060606060606060B0B0B0B0B9B
:1008F0000B0B0B0102102020080810204010204094
:1009000080020102010804020101020408102040D3
:1009100080804020100804020180040201804020F1
:10092000100804020108040201010204081020401A
:1009300080010204081020408000000A0B02090C0C
:100940000D0E080703040100000000000000000075
:100950000000000000000000000000000000000097
:100960000000000000121110000000000000000054
:100970000000000000000000000000000000000077
:10098000C20F11241FBECFEFD1E2DEBFCDBF00E00A
:100990000CBF12E0A0E0B2E0ECE2F5E200E00BBF39
:1009A00002C007900D92A432B107D9F725E0A4E266
:1009B000B2E001C01D92A737B207E1F714E0C1EC25
:1009C000D4E000E006C021970109802FFE010E94BB
:1009D0004D12C03CD10780E00807A9F70E94B30B75
:1009E0000C9494120C940000282F30E0F901E75C7D
:1009F000F64F9491F901ED50F74F44912355374F3D
:100A0000F9012491222309F477C0992311F191501F
:100A10009231F8F4E92FF0E08827EE5EFA4F8F4F1D
:100A20000C944D1241054505240539053D05290560
:100A300048054E05520558055C05600566056A05C2
:100A400029056E0574057805809180008F77809365
:100A50008000E22FF0E0EE0FFF1FED56F74FA5915B
:100A6000B491EC91E42381E090E009F047C080E08C
:100A70000895809180008F7DEACF80918000877FEC
:100A8000E6CF84B58F7784BDE4CF84B58F7DFBCF6F
:100A90008091B0008F778093B000DBCF8091B00061
:100AA0008F7DF9CF809190008F7780939000D1CF88
:100AB000809190008F7DF9CF80919000877FF5CF56
:100AC0008091A0008F778093A000C3CF8091A00079
:100AD0008F7DF9CF8091A000877FF5CF8091200195
:100AE0008F7780932001B5CF809120018F7DF9CF42
:100AF00080912001877FF5CF80E090E00895CF932B
:100B0000DF9390E0FC01ED50F74F24918355974F10
:100B1000FC0184918823C9F090E0880F991FFC01A3
:100B2000E758F74FA591B491FC01E15AF74FC591F1
:100B3000D49161110DC09FB7F8948C9120958223B8
:100B40008C938881282328839FBFDF91CF910895BC
:100B5000623051F49FB7F8943C91822F80958323A3
:100B60008C93E8812E2BEFCF8FB7F894EC912E2B3E
:100B70002C938FBFEACF865320917B00982F987FCC
:100B8000277F922B90937B008770806480937C00FA
:100B900080917A00806480937A0080917A0086FD4B
:100BA000FCCF809178009091790008953FB7F89438
:100BB0008091D6049091D704A091D804B091D90423
:100BC00026B5A89B05C02F3F19F00196A11DB11DA8
:100BD0003FBFBA2FA92F982F8827BC01CD01620FE4
:100BE000711D811D911D42E0660F771F881F991F9F
:100BF0004A95D1F708958F929F92AF92BF92CF926C
:100C0000DF92EF92FF924B015C010E94D6056B01CF
:100C10007C010E94D6056C197D098E099F09683EEA
:100C2000734081059105A8F321E0821A9108A1087B
:100C3000B10888EEC80E83E0D81EE11CF11C8114B7
:100C40009104A104B10429F7FF90EF90DF90CF90B9
:100C5000BF90AF909F908F9008952FB7F8946091B8
:100C6000D2047091D3048091D4049091D5042FBF05
:100C70000895AF92BF92CF92DF92EF92FF920F93BF
:100C80001F93CF93DF936C017B018B01040F151F22
:100C9000EB015E01AE18BF08C017D10759F069918A
:100CA000D601ED91FC910190F081E02DC6011995DE
:100CB000892B79F7C501DF91CF911F910F91FF909B
:100CC000EF90DF90CF90BF90AF900895FC01538DCF
:100CD000448D252F30E0842F90E0821B930B541716
:100CE00010F0CF96089501970895FC01918D828DA3
:100CF000981761F0A28DAE0FBF2FB11D5D968C913C
:100D0000928D9F5F9F73928F90E008958FEF9FEF7A
:100D10000895FC01918D828D981731F0828DE80F36
:100D2000F11D858D90E008958FEF9FEF0895FC01F0
:100D3000918D228D892F90E0805C9F4F821B9109BD
:100D40008F73992708958AED94E00E94970621E019
:100D5000892B09F420E0822F0895FC01A48DA80FAF
:100D6000B92FB11DA35ABF4F2C91848D90E00196ED
:100D70008F739927848FA689B7892C93A089B1890D
:100D80008C91837080648C93938D848D981306C0AE
:100D90000288F389E02D80818F7D80830895EF9212
:100DA000FF920F931F93CF93DF93EC0181E0888F25
:100DB0009B8D8C8D98131AC0E889F989808185FFF5
:100DC00015C09FB7F894EE89FF896083E889F98997
:100DD00080818370806480839FBF81E090E0DF9199
:100DE000CF911F910F91FF90EF900895F62E0B8DEC
:100DF00010E00F5F1F4F0F731127E02E8C8D8E11A7
:100E00000CC00FB607FCFACFE889F989808185FF0D
:100E1000F5CFCE010E94AD06F1CFEB8DEC0FFD2F8B
:100E2000F11DE35AFF4FF0829FB7F8940B8FEA89C8
:100E3000FB8980818062CFCF0F931F93CF93DF9385
:100E40008C01D0E0C0E0F801EC0FFD1F6491662337
:100E500041F08AED94E00E94CF06892B11F0219693
:100E6000F2CFCE01DF91CF911F910F910895682F9E
:100E70008AED94E00C94CF06CF93DF93EC01888D3C
:100E80008823B9F0AA89BB89E889F9898C9185FD05
:100E900003C0808186FD0DC00FB607FCF7CF8C9193
:100EA00085FFF2CF808185FFEDCFCE010E94AD0698
:100EB000E9CFDF91CF91089580E090E0892B29F070
:100EC0000E94A30681110E94000080E090E0892B1F
:100ED00049F080E090E0892B29F00E940000811108
:100EE0000E94000080E090E0892B49F080E090E0D3
:100EF000892B29F00E94000081110E94000080E0EF
:100F000090E0892B49F080E090E0892B29F00E9445
:100F1000000081110C94000008959F92AF92BF923F
:100F2000CF92DF92EF92FF920F931F93CF93DF93B5
:100F3000D0E0C0E0912CA12CB12CC12CD12CE12C03
:100F4000F12C10E08C2F8E5F0E94F404892B99F015
:100F500021E030E040E050E060E070E080E090E0D0
:100F60000C2F0E945512922AA32AB42AC52AD62AE7
:100F7000E72AF82A192B2196C433D10519F7292D10
:100F80003A2D4B2D5C2D6D2D7E2D8F2D912FDF91C8
:100F9000CF911F910F91FF90EF90DF90CF90BF9076
:100FA000AF909F9008958F929F92AF92BF92EF92D1
:100FB000FF920F931F93CF930E942D064B015C016C
:100FC0000DEF12E0C2E0EE24EA94FE2C8C2F0E947A
:100FD000F40421E0892B09F420E0F80120878082C5
:100FE0009182A282B38215821482F782E682CF5F59
:100FF000075F1F4FC63351F70CE212E0EE24E39473
:10100000F12C8C2F0E94BB05F80191838083938380
:10101000828395838483B0E0A0E086839783A08752
:10102000B187F386E286CF5F045F1F4FC63449F76E
:101030008092240290922502A0922602B09227026A
:10104000CF911F910F91FF90EF90BF90AF909F9025
:101050008F900895CF93C2E08091000260E08111EB
:1010600062E08C2F0E947F05CF5FC633A9F7CF9136
:101070000895FC0101900020E9F73197AF01481B6A
:10108000590BBC018AED94E00C94390685E192E09D
:101090000C943908CF93DF930E941C07EC010E9447
:1010A00046088C0F9D1FDF91CF9108958F929F92DC
:1010B000AF92BF920F931F93CF93DF93CDB7DEB75D
:1010C000A1970FB6F894DEBF0FBECDBF19A2423074
:1010D00008F44AE08E010F5D1F4F842E912CB12C35
:1010E000A12CA50194010E942B12E62FB901CA017F
:1010F000EA30F4F4E05DD801EE938D01232B242B2C
:10110000252B79F790E080E0109719F0CD010E942F
:101110003908A1960FB6F894DEBF0FBECDBFDF91A0
:10112000CF911F910F91BF90AF909F908F90089596
:10113000E95CE1CFBC0190E080E04AE00C94560805
:101140004F925F926F927F928F929F92AF92BF92D7
:10115000CF92DF92EF92FF920F931F93CF936B0189
:101160007C01742EAC019B010E942612882399F009
:1011700088E192E0CF911F910F91FF90EF90DF9067
:10118000CF90BF90AF909F908F907F906F905F9027
:101190004F900C94390846015701E894B7F82FEFA7
:1011A0003FEF4FE75FE7C501B4010E9426128111AE
:1011B0000DC02FEF3FEF4FE75FE7C501B4010E947D
:1011C0005C1018161CF48CE192E0D4CF2FEF3FEFA7
:1011D0004FE75FE4C701B6010E94B41118161CF472
:1011E00080E292E0C7CF2FEF3FEF4FE75FECC70100
:1011F000B6010E945C1087FDF3CF20E030E0A9012A
:10120000C701B6010E945C1010E000E087FF08C033
:101210008DE20E9437078C01F7FAF094F7F8F0940A
:10122000C0E060E070E080E09FE37C1641F020E0E9
:1012300030E040E251E40E946110CF5FF6CFA70199
:1012400096010E94F00F2B013C010E94D3104B012C
:101250005C014AE00E9456087C01E00EF11ECC239E
:1012600099F1C501B4010E9402119B01AC01C301B7
:10127000B2010E94EF0F4B015C018EE20E94370722
:10128000E80EF91EC15000F120E030E040E251E4E8
:10129000C501B4010E94B9112B013C010E94D31079
:1012A0004B01CB010E949A08E80EF91EB40190E0B0
:1012B00080E00E9402119B01AC01C301B2010E94B7
:1012C000EF0F4B015C01DECFC701CF911F910F9152
:1012D000FF90EF90DF90CF90BF90AF909F908F9056
:1012E0007F906F905F904F9008958F929F92AF92F2
:1012F000BF92CF92DF92EF92FF920F931F93CF9303
:10130000DF930E94460882E892E00E941C070E9438
:101310002D06009124021091250220912602309181
:101320002702601B710B820B930B0E94021120E0BD
:1013300030E04AE754E40E94611041E00E94A008B6
:101340008AE792E00E944A0880910202882309F409
:1013500081C08EE092E00E944A0884EE91E00E94F3
:101360004A08CDEFD2E082E0C82ED12CE12CF12C3E
:1013700010E08885882329F08C819D81892B09F4D0
:101380004BC01F5F80EE91E00E941C074AE0C7013E
:10139000B6010E9456088EEF8C0D883018F480E25A
:1013A0000E94370788858111E0C084EC91E00E949B
:1013B0001C078DED91E00E941C078C819D810E948D
:1013C0009A0886ED91E00E941C078E819F818F3FD5
:1013D000980709F0CDC082EC91E00E941C0787EBD2
:1013E00091E00E941C070E942D0688809980AA80A7
:1013F000BB80681979098A099B090E94021120E0C3
:1014000030E04AE754E40E94611041E00E94A008E5
:1014100081EB91E00E944A0829968FEFC81AD80AFA
:10142000E80AF80A26E3C216D104E104F10409F03F
:10143000A0CF11110FC08AEA91E00E941C074AE078
:1014400064E370E080E090E00E94560884E791E059
:101450000E944A088091F002882309F478C08DE642
:1014600092E00E944A0887E492E00E944A08CCE297
:10147000D2E0C12CD12C76010C811D818A819B8107
:10148000081B190B0530110528F4888199810897EC
:1014900008F450C083E492E00E941C074AE0C701B0
:1014A000B6010E94560889E08C1518F080E20E946F
:1014B000370780E492E00E941C07888199810E948E
:1014C0009A088CE392E00E941C078A819B810E940B
:1014D0009A0888E392E00E941C078C819D810E94FB
:1014E0009A0884E392E00E941C072A853B8560E00D
:1014F00070E0CB012115310551F050E040E06E81E4
:101500007F81888599850E942B12CA01B9014AE022
:101510000E94560880E392E00E941C07C8010E94C6
:101520009A080333110520F08CE192E00E941C0719
:101530000E9446082C962FEFC21AD20AE20AF20A3B
:1015400080E1C816D104E104F10409F095CFDF91E0
:10155000CF911F910F91FF90EF90DF90CF90BF90B0
:10156000AF909F908F900C9446088DEC91E01FCF28
:101570000E949A088FEB91E030CF2F923F924F92CA
:101580005F926F927F928F929F92AF92BF92CF9213
:10159000DF92EF92FF920F931F93CF93DF93390166
:1015A0004A015B016C0180E791E00E941C074AE060
:1015B000C801B7010E94560880E20E943707C0E3C5
:1015C000D0E09301A401B501C6010C2F0E94701256
:1015D0002F70622F70E090E080E040E10E9456089A
:1015E0002497CC3F8FEFD80761F7DF91CF911F9100
:1015F0000F91FF90EF90DF90CF90BF90AF909F90B2
:101600008F907F906F905F904F903F902F900C94B1
:1016100046081F920F920FB60F9211242F933F93FB
:101620008F939F93AF93BF938091D2049091D304F3
:10163000A091D404B091D5043091D10423E0230FBC
:101640002D3758F50196A11DB11D2093D10480932B
:10165000D2049093D304A093D404B093D504809182
:10166000D6049091D704A091D804B091D9040196E2
:10167000A11DB11D8093D6049093D704A093D804E4
:10168000B093D904BF91AF919F918F913F912F91CA
:101690000F900FBE0F901F90189526E8230F02960B
:1016A000A11DB11DD2CF1F920F920FB60F92112420
:1016B0000BB60F922F933F934F935F936F937F934C
:1016C0008F939F93AF93BF93EF93FF938AED94E033
:1016D0000E94AD06FF91EF91BF91AF919F918F91C5
:1016E0007F916F915F914F913F912F910F900BBE22
:1016F0000F900FBE0F901F9018951F920F920FB66C
:101700000F9211240BB60F922F938F939F93EF9309
:10171000FF93E091EA04F091EB048081E091F00402
:10172000F091F10482FD1DC090818091F3048F5FE0
:101730008F732091F404821741F0E091F304F0E0FC
:10174000E652FB4F958F8093F304FF91EF919F91A9
:101750008F912F910F900BBE0F900FBE0F901F9087
:1017600018958081F2CF789484B5826084BD84B569
:10177000816084BD85B5826085BD85B5816085BD8C
:1017800080916E00816080936E0010928100809144
:1017900081008260809381008091810081608093CC
:1017A0008100809180008160809380008091B100F1
:1017B00084608093B1008091B00081608093B0001C
:1017C000809191008260809391008091910081606E
:1017D000809391008091900081608093900080912F
:1017E000A10082608093A1008091A100816080931C
:1017F000A1008091A00081608093A00080912101D0
:101800008260809321018091210181608093210178
:101810008091200181608093200180917A00846012
:1018200080937A0080917A00826080937A00809120
:101830007A00816080937A0080917A00806880933A
:101840007A001092C100E091EA04F091EB0482E08A
:101850008083E091E604F091E7041082E091E804CF
:10186000F091E90480E180831092F204E091EE04AB
:10187000F091EF0486E08083E091EC04F091ED04B8
:10188000808180618083E091EC04F091ED0480819F
:1018900088608083E091EC04F091ED0480818068A1
:1018A0008083E091EC04F091ED0480818F7D808352
:1018B0000E942A0862E370E080E090E00E94FB054D
:1018C0000E94D3070E94460880E294E00E944A08E2
:1018D00086E194E00E941C0780E194E00E941C07CE
:1018E00087EE93E00E944A0884EB93E00E944A0846
:1018F00087EA93E00E941C074AE062E070E080E023
:1019000090E00E94560883EA93E00E941C074AE098
:1019100065E370E080E090E00E94560889E793E07C
:101920000E944A0884E593E00E944A0886E393E017
:101930000E944A088EEF92E00E944A088BEC92E0E7
:101940000E944A0884E992E00E944A080E944608E0
:1019500084E694E00E941C078EE594E00E941C0738
:1019600080E20E94370783E594E00E944A080E94C3
:101970008D0749015A016B01D82FC92F2093F50219
:101980009092F6024093F702B092F8026093F90247
:10199000D092FA028093FB029093FC020E942D06E3
:1019A0007B018C019401A501B6018D2F9C2F0E9413
:1019B000BD0A332433940E942D062B013C018091F3
:1019C0000202882309F480C08091010281117CC049
:1019D000CDEFD2E022E0C22ED12CE12CF12C8C2DC7
:1019E0000E94F4048C0121E0892B09F420E0888511
:1019F000281709F45CC088819981AA81BB815301B1
:101A00004201881A990AAA0ABB0A8C819D81009713
:101A100059F04E815F8170E060E084169506A6065D
:101A2000B70610F49F828E822887488259826A8284
:101A30007B8201969D838C8386E598E00E941C073B
:101A40004AE0C301B2010E94560880E598E00E9476
:101A50001C074AE0C701B6010E9456088DE298E0D3
:101A6000012B11F48FE198E00E941C0787E498E0B5
:101A70000E941C074AE0C501B4010E9456088BE38E
:101A800098E00E941C078C819D810E949A080AE0C0
:101A900080169104A104B10440F48C819D810297C9
:101AA00020F081E198E00E941C070E9446082996D8
:101AB0001FEFC11AD10AE10AF10A26E3C216D104C6
:101AC000E104F10409F08BCF809101028823C9F170
:101AD0000E948D074901D42FC52FB62FA72FF82FAD
:101AE000E92FA090F502B090F602C090F702D090D6
:101AF000F802E090F902F090FA020091FB021091D6
:101B0000FC020E948B1209F4D5C02093F50290923A
:101B1000F6024093F7025093F8026093F902709333
:101B2000FA028093FB029093FC02830172010E94EF
:101B3000BD0A4092F1025092F2026092F30270925A
:101B4000F4028091F002882309F45EC08091EC02D7
:101B50009091ED02A091EE02B091EF02A3019201EB
:101B6000281B390B4A0B5B0BDA01C901883C910534
:101B7000A105B10508F448C04092EC025092ED0274
:101B80006092EE027092EF02CCE2D2E016E3812F77
:101B90000E94BB05998388832A813B818217930722
:101BA00010F49B838A832C813D812817390710F418
:101BB0009D838C834E815F81688579856A017B0175
:101BC000C80ED91EE11CF11CC701B6016E837F83CC
:101BD000888799872A853B852F5F3F4F3B872A87D8
:101BE000213305E7300760F050E040E00E942B12FF
:101BF0002E833F834887598721E030E03B872A873F
:101C00001F5F2C96163419F68091010281111FC0B6
:101C10008091280290912902A0912A02B0912B0272
:101C200073016201C81AD90AEA0AFB0AD701C60180
:101C3000883B9B40A105B10550F04092280250928C
:101C4000290260922A0270922B020E947509CBEC45
:101C5000D7E08AED94E00E949706892B09F48FC1A2
:101C60008AED94E00E947506FC01E156F109EA3123
:101C7000F10578F78827E05CF14F8F4F0C944D12F7
:101C8000AF0F290E290E9F0F450F290E290E840E26
:101C9000290E290E290E290E290E290E290EB50E00
:101CA000290EAE0EAB0E290E290E290E500F290E4D
:101CB000290E850F4091F1025091F2026091F302DA
:101CC0007091F40273016201C41AD50AE60AF70A98
:101CD000B701A60140365A4E6105710508F431CFAF
:101CE0004092F1025092F2026092F3027092F4027A
:101CF0008301720194014D2F5C2F6B2F7A2F8F2F50
:101D00009E2F0E94BD0A1DCF8EEB95E00E944A08CF
:101D10008FEA95E00E944A0880E995E00E944A080F
:101D200084E595E00E944A088EE095E00E944A080A
:101D300082ED94E00E944A088BEA94E00E944A08EF
:101D40008DE894E00E944A0880E794E00E944A08E7
:101D50000E9446087ECF0E9475097BCF0E94D30760
:101D600085E098E00E944A0874CF0E9446088EE001
:101D700097E00E944A0889EE96E00E944A0892E0A5
:101D8000C92ED12CE12CF12C10E00C2D62E08C2D11
:101D90000E947F05CE010197F1F78C2D0E94F4047B
:101DA000A0900002019799F562E0A11001C060E0E7
:101DB000802F0E947F052FEFC21AD20AE20AF20A90
:101DC00036E3C316D104E104F104F9F68FE696E098
:101DD0000E941C07612F70E090E080E04AE00E94C2
:101DE00056088AE696E00E941C074AE064E370E029
:101DF00080E090E00E94560889E396E00E944A083D
:101E00008EEF95E00E944A088EEC95E09FCF62E04D
:101E10008C2D0E947F05CE010197F1F788E7B82E3F
:101E2000802F0E94F404019771F161E070E080E07E
:101E300090E00E94FB05BA94B110F2CFBB24B3949A
:101E400062E0A11001C060E0802F0E947F0585EE56
:101E500096E00E941C074AE0C701B6010E9456089E
:101E60000A3018F480E20E94370785ED96E00E9460
:101E70001C0785E796E0BB2019F01F5F88EA96E013
:101E80000E944A0898CFB12CDBCF0E942D066B012F
:101E90007C010E948D07870176010E94BD0AD9CE80
:101EA0001091010213251093010289EF97E00E941F
:101EB0001C0782ED97E0111102C08EEC97E00E94A2
:101EC0004A0880910102882309F4C3CE0E948D073D
:101ED00039014A015B016C012093F5027092F60210
:101EE0004093F7029092F8026093F902B092FA02DE
:101EF0008093FB02D092FC020E942D067B018C0194
:101F00009301A401B501C601C8CF109100021325A9
:101F1000109300020E942A0864E170E080E090E0E3
:101F20000E94FB050E94D3078EEB97E00E941C07DE
:101F300081EA97E0111116CF8CE797E013CF10914B
:101F4000020213251093020289E697E00E941C0703
:101F500086E697E0111106CF82E697E003CF109155
:101F6000F00213251093F00280E597E00E941C0711
:101F70008DE497E01111F6CE89E497E0F3CE0E944C
:101F80005C0719CDEAEDF4E01382128288EE93E04B
:101F9000A0E0B0E084839583A683B78387E092E0D6
:101FA0009183808385EC90E09587848784EC90E032
:101FB0009787868780EC90E0918B808B81EC90E016
:101FC000938B828B82EC90E0958B848B86EC90E0F7
:101FD000978B868B118E128E138E148E0895505807
:101FE000BB27AA270E9407100C947A110E946C113B
:101FF00038F00E94731120F039F49F3F19F426F451
:102000000C9469110EF4E095E7FB0C946311E92F31
:102010000E948B1158F3BA1762077307840795075C
:1020200020F079F4A6F50C94AD110EF4E0950B2E8A
:10203000BA2FA02D0B01B90190010C01CA01A0011A
:102040001124FF27591B99F0593F50F4503E68F175
:102050001A16F040A22F232F342F4427585FF3CFB6
:10206000469537952795A795F0405395C9F77EF487
:102070001F16BA0B620B730B840BBAF09150A1F0D0
:10208000FF0FBB1F661F771F881FC2F70EC0BA0F56
:10209000621F731F841F48F4879577956795B795DE
:1020A000F7959E3F08F0B0CF9395880F08F09927D9
:1020B000EE0F9795879508950E943F1108F481E0EF
:1020C00008950E9475100C947A110E94731158F0B3
:1020D0000E946C1140F029F45F3F29F00C946311C9
:1020E00051110C94AE110C9469110E948B1168F37C
:1020F0009923B1F3552391F3951B550BBB27AA27C1
:1021000062177307840738F09F5F5F4F220F331FFA
:10211000441FAA1FA9F335D00E2E3AF0E0E832D0C2
:1021200091505040E695001CCAF72BD0FE2F29D0C5
:10213000660F771F881FBB1F261737074807AB0797
:10214000B0E809F0BB0B802DBF01FF2793585F4F0C
:102150003AF09E3F510578F00C9463110C94AE1147
:102160005F3FE4F3983ED4F3869577956795B795EE
:10217000F7959F5FC9F7880F911D9695879597F9F9
:102180000895E1E0660F771F881FBB1F6217730772
:102190008407BA0720F0621B730B840BBA0BEE1F87
:1021A00088F7E09508950E94931188F09F5798F062
:1021B000B92F9927B751B0F0E1F0660F771F881F4C
:1021C000991F1AF0BA95C9F714C0B13091F00E9466
:1021D000AD11B1E008950C94AD11672F782F8827C9
:1021E000B85F39F0B93FCCF3869577956795B3958D
:1021F000D9F73EF490958095709561957F4F8F4FFC
:102200009F4F0895E89409C097FB3EF49095809500
:10221000709561957F4F8F4F9F4F9923A9F0F92FAC
:1022200096E9BB279395F695879577956795B7952A
:10223000F111F8CFFAF4BB0F11F460FF1BC06F5F10
:102240007F4F8F4F9F4F16C0882311F096E911C022
:10225000772321F09EE8872F762F05C0662371F043
:1022600096E8862F70E060E02AF09A95660F771F57
:10227000881FDAF7880F9695879597F90895990F33
:102280000008550FAA0BE0E8FEEF16161706E80740
:10229000F907C0F012161306E407F50798F0621B61
:1022A000730B840B950B39F40A2661F0232B242B36
:1022B000252B21F408950A2609F4A140A6958FEF55
:1022C000811D811D089597F99F6780E870E060E0A7
:1022D00008959FEF80EC089500240A9416161706BF
:1022E00018060906089500240A9412161306140607
:1022F00005060895092E0394000C11F4882352F06A
:10230000BB0F40F4BF2B11F460FF04C06F5F7F4F21
:102310008F4F9F4F089557FD9058440F551F59F008
:102320005F3F71F04795880F97FB991F61F09F3FC2
:1023300079F087950895121613061406551FF2CFEB
:102340004695F1DF08C0161617061806991FF1CF3B
:1023500086957105610508940895E894BB27662762
:102360007727CB0197F908950E943F1108F48FEF6A
:1023700008950E94CC110C947A110E946C1138F0CF
:102380000E94731120F0952311F00C9463110C94AA
:10239000691111240C94AE110E948B1170F3959F5A
:1023A000C1F3950F50E0551F629FF001729FBB274C
:1023B000F00DB11D639FAA27F00DB11DAA1F649FE8
:1023C0006627B00DA11D661F829F2227B00DA11D9B
:1023D000621F739FB00DA11D621F839FA00D611D21
:1023E000221F749F3327A00D611D231F849F600D42
:1023F000211D822F762F6A2F11249F5750409AF06B
:10240000F1F088234AF0EE0FFF1FBB1F661F771FF6
:10241000881F91505040A9F79E3F510580F00C94C1
:1024200063110C94AE115F3FE4F3983ED4F38695AC
:1024300077956795B795F795E7959F5FC1F7FE2B61
:10244000880F911D9695879597F908950E943F11E1
:10245000880B990B0895A1E21A2EAA1BBB1BFD0144
:102460000DC0AA1FBB1FEE1FFF1FA217B307E40773
:10247000F50720F0A21BB30BE40BF50B661F771FCB
:10248000881F991F1A9469F76095709580959095AB
:102490009B01AC01BD01CF010895EE0FFF1F881F06
:1024A0008BBF0790F691E02D1994002E083090F024
:1024B000982F872F762F652F542F432F322F2227C7
:1024C0000850F4CF220F331F441F551F661F771F7C
:1024D000881F991F0A95B2F7002D089597FD109453
:1024E000002E083098F00850232F342F452F562FF8
:1024F000672F782F892F912DF4CF15949795879575
:102500007795679557954795379527950A95AAF733
:102510001124002D08952A153B054C055D056E0517
:0C2520007F05800791070895F894FFCF15
:10252C0001010100000000CF06390666063C079742
:10253C0006750689060D0A006E616E00696E6600EE
:04254C006F76660040
:00000001FF
