:100000000C9437030C9468030C9468030C946803F5
:100010000C9468030C9468030C9468030C946803B4
:100020000C9468030C9468030C9468030C946803A4
:100030000C9468030C9468030C9468030C94680394
:100040000C9468030C9468030C9468030C94680384
:100050000C9468030C9468030C9468030C947D085A
:100060000C9468030C94F1080C94C7080C94680372
:100070000C9468030C9468030C9468030C94680354
:100080000C9468030C9468030C9468030C94680344
:100090000C9468030C9468030C9468030C94680334
:1000A0000C9468030C9468030C9468030C94680324
:1000B0000C9468030C9468030C9468030C94680314
:1000C0000C9468030C9468030C9468030C94680304
:1000D0000C9468030C9468030C9468030C946803F4
:1000E0000C9468030C9485040C94C4030C94C8030A
:1000F0000C94CB040C9435040C94BB030C9438057D
:100100000C949A030C94AF030C94E4030C949304A2
:100110000C94DC030C9471040C9462040C94B303EF
:100120000C94E0030C949F030C94EA030C94EE03EC
:100130000C94CB0B0C94CE030C94B7030C94BE031D
:100140000C94D2030C94D6032070696E73206964FA
:100150006C652048494748202D206E6F7468696E91
:100160006720636F6E6E65637465642070756C6C78
:10017000696E67207468656D20646F776E0020205B
:10018000616C6C2000732061676F002020202020AC
:100190002020006D73002D002020204C4F57202080
:1001A00000202020484947482000202020202020EF
:1001B0000020200020204400202070696E20207341
:1001C000746174652020656467657320206D696EB5
:1001D00050756C736520206C6173744368616E6741
:1001E00065002D2D206469676974616C202D2D00D8
:1001F00020203C2D206E6F6973792F6368616E67D4
:10020000696E670020202000202020002020200090
:100210002020200020200020204100202063682092
:1002200020206E6F772020206D696E2020206D6168
:1002300078202020206176672020207377696E6700
:10024000002D2D20616E616C6F67202D2D007320B5
:100250003D3D3D3D3D003D3D3D3D3D20736E61706A
:1002600073686F74204020000000220025002800E1
:100270002B002E00310034000201000005010801AE
:100280000B0100002100240027002A002D0030006F
:10029000330001010000040107010A015761746382
:1002A00068696E6720666F722065646765732E20CB
:1002B000546F75636820612070696E20746F2047E9
:1002C0004E4420746F2073656520697420666972DE
:1002D000652E002D2D2D2D2D2D2D2D2D2D2D2D2D42
:1002E0002D2D2D2D2D2D2D2D2D2D2D2D2D2D2D2D3E
:1002F0002D2D2D2D2D2D2D2D2D2D2D2D2D2D2D2D2E
:100300002D2D2D2D2D0020636F6D6D616E64733A60
:1003100020683D68656C7020733D736E6170736812
:100320006F7420723D726573657420643D64696703
:100330006974616C20613D616E616C6F6700207350
:100340006B6970706564203A2044302F4431202D51
:10035000205553422073657269616C0020616E61A3
:100360006C6F6720203A2041302E2E4131352028F5
:10037000686967682D5A2C20302E2E31303233298F
:1003800000202028494E5055545F50554C4C555034
:10039000202D20756E636F6E6E65637465642072C8
:1003A00065616473204849474829002E2E44002087
:1003B0006469676974616C203A2044003D3D3D3DAD
:1003C0003D3D3D3D3D3D3D3D3D3D3D3D3D3D3D3D5D
:1003D0003D3D3D3D3D3D3D3D3D3D3D3D3D3D3D3D4D
:1003E0003D3D3D3D3D3D3D3D3D3D3D3D3D3D002097
:1003F000494F4465627567202D2041726475696EAE
:100400006F204D656761203235363020492F4F20EF
:100410007369676E616C20646562756767657200F9
:100420003D3D3D3D3D3D3D3D3D3D3D3D3D3D3D3DFC
:100430003D3D3D3D3D3D3D3D3D3D3D3D3D3D3D3DEC
:100440003D3D3D3D3D3D3D3D3D3D3D3D3D3D3D3DDC
:100450003D3D002020612020746F67676C6520613E
:100460006E616C6F67207265706F7274696E670081
:100470002020642020746F67676C65206469676959
:1004800074616C207265706F7274696E67002020F1
:10049000722020726573657420616C6C20636F75C7
:1004A0006E7465727320616E642073746174697315
:1004B000746963730020207320207072696E742049
:1004C000612066756C6C20736E617073686F742048
:1004D0006E6F77002020682020746869732068653B
:1004E0006C70000A2D2D20636F6D6D616E6473203A
:1004F0002D2D004F4646004F4E00616E616C6F67B8
:10050000207265706F7274696E6720004F464600F6
:100510004F4E006469676974616C207265706F7218
:1005200074696E67200073746174732072657365FB
:1005300074002020203C2D20424F554E43453F0063
:10054000202048494748202D3E204C4F570020206E
:100550004C4F57202D3E2048494748006D732020BE
:100560002065646765733D0020202068656C643DEC
:10057000006D7320204400454447452020743D0011
:10058000000020002300260029002C002F0032004C
:100590000001000003010601090105050505070525
:1005A00008080808020202020A0A080804040404EF
:1005B000010101010101010103030303030303031B
:1005C000040707070C0C0C0C0C0C0C0C02020202AA
:1005D00006060606060606060B0B0B0B0B0B0B0B93
:1005E0000102102020080810204010204080020145
:1005F000020108040201010204081020408080402A
:100600002010080402018004020180402010080428
:1006100002010804020101020408102040800102C6
:1006200004081020408000000A0B02090C0D0E087F
:1006300007030401000000000000000000000000AB
:1006400000000000000000000000000000000000AA
:100650000000121110000000000000000000000067
:10066000000000000000000000000000CB0B11247F
:100670001FBECFEFD1E2DEBFCDBF00E00CBF12E066
:10068000A0E0B2E0E0ECFCE100E00BBF02C00790AC
:100690000D92A432B107D9F725E0A4E2B2E001C07F
:1006A0001D92AA36B207E1F713E0C7E3D3E000E0FA
:1006B00006C021970109802FFE010E94560EC63305
:1006C000D10780E00807A9F70E9427090C945E0E65
:1006D0000C940000282F30E0F901EA5DF94F949165
:1006E000F901E052FA4F449126563A4FF90124910C
:1006F000222309F477C0992311F191509231F8F433
:10070000E92FF0E08827E857FC4F8F4F0C94560EE6
:10071000B703BB039A03AF03B3039F03BE03C40332
:10072000C803CE03D203D603DC03E0039F03E40334
:10073000EA03EE03809180008F7780938000E22FA0
:10074000F0E0EE0FFF1FE058FA4FA591B491EC9145
:10075000E42381E090E009F047C080E008958091B3
:1007600080008F7DEACF80918000877FE6CF84B5BF
:100770008F7784BDE4CF84B58F7DFBCF8091B000AF
:100780008F778093B000DBCF8091B0008F7DF9CF61
:10079000809190008F7780939000D1CF80919000CE
:1007A0008F7DF9CF80919000877FF5CF8091A00059
:1007B0008F778093A000C3CF8091A0008F7DF9CF69
:1007C0008091A000877FF5CF809120018F77809363
:1007D0002001B5CF809120018F7DF9CF809120013C
:1007E000877FF5CF80E090E00895865320917B00CD
:1007F000982F987F277F922B90937B00877080643F
:1008000080937C0080917A00806480937A0080914C
:100810007A0086FDFCCF8091780090917900089550
:100820003FB7F8948091C9049091CA04A091CB0479
:10083000B091CC0426B5A89B05C02F3F19F00196B6
:10084000A11DB11D3FBFBA2FA92F982F8827BC012A
:10085000CD01620F711D811D911D42E0660F771F52
:10086000881F991F4A95D1F70895AF92BF92CF92F2
:10087000DF92EF92FF920F931F93CF93DF936C0160
:100880007B018B01040F151FEB015E01AE18BF0841
:10089000C017D10759F06991D601ED91FC910190F3
:1008A000F081E02DC6011995892B79F7C501DF91FB
:1008B000CF911F910F91FF90EF90DF90CF90BF905D
:1008C000AF900895FC01538D448D252F30E0842F87
:1008D00090E0821B930B541710F0CF960895019768
:1008E0000895FC01918D828D981761F0A28DAE0F55
:1008F000BF2FB11D5D968C91928D9F5F9F73928FDC
:1009000090E008958FEF9FEF0895FC01918D828D07
:10091000981731F0828DE80FF11D858D90E00895D4
:100920008FEF9FEF0895FC01918D228D892F90E02C
:10093000805C9F4F821B91098F73992708958DECDE
:1009400094E00E94930421E0892B09F420E0822F97
:100950000895FC01A48DA80FB92FB11DA35ABF4F54
:100960002C91848D90E001968F739927848FA689AE
:10097000B7892C93A089B1898C91837080648C9302
:10098000938D848D981306C00288F389E02D8081B1
:100990008F7D80830895EF92FF920F931F93CF93E3
:1009A000DF93EC0181E0888F9B8D8C8D98131AC0AA
:1009B000E889F989808185FF15C09FB7F894EE8991
:1009C000FF896083E889F9898081837080648083EE
:1009D0009FBF81E090E0DF91CF911F910F91FF9039
:1009E000EF900895F62E0B8D10E00F5F1F4F0F73E1
:1009F0001127E02E8C8D8E110CC00FB607FCFACF9C
:100A0000E889F989808185FFF5CFCE010E94A9048C
:100A1000F1CFEB8DEC0FFD2FF11DE35AFF4FF0826C
:100A20009FB7F8940B8FEA89FB8980818062CFCFD2
:100A30000F931F93CF93DF938C01D0E0C0E0F801B8
:100A4000EC0FFD1F6491662341F08DEC94E00E9451
:100A5000CB04892B11F02196F2CFCE01DF91CF91FB
:100A60001F910F910895682F8DEC94E00C94CB04A6
:100A7000CF93DF93EC01888D8823B9F0AA89BB89D5
:100A8000E889F9898C9185FD03C0808186FD0DC0C0
:100A90000FB607FCF7CF8C9185FFF2CF808185FFE1
:100AA000EDCFCE010E94A904E9CFDF91CF91089547
:100AB00080E090E0892B29F00E949F0481110E9420
:100AC000000080E090E0892B49F080E090E0892BE5
:100AD00029F00E94000081110E94000080E090E057
:100AE000892B49F080E090E0892B29F00E940000DA
:100AF00081110E94000080E090E0892B49F080E0A5
:100B000090E0892B29F00E94000081110C940000D4
:100B100008958F929F92AF92BF92EF92FF920F93A0
:100B20001F93CF938FB7F8948090C5049090C6041C
:100B3000A090C704B090C8048FBF00EF12E0C2E0DD
:100B4000EE24EA94FE2C8C2F0E946A0321E0892B6C
:100B500009F420E0F801208780829182A282B3828A
:100B600015821482F782E682CF5F075F1F4FC6337C
:100B700051F70CE212E0EE24E394F12C8C2F0E944A
:100B8000F503F80191838083938382839583848323
:100B9000B0E0A0E086839783A087B187F386E286E2
:100BA000CF5F045F1F4FC63449F7809224029092B2
:100BB0002502A0922602B0922702CF911F910F9199
:100BC000FF90EF90BF90AF909F908F900895FC01A1
:100BD00001900020E9F73197AF01481B590BBC0188
:100BE0008DEC94E00C94350484E192E00C94E705DC
:100BF000CF93DF930E941805EC010E94F4058C0F3F
:100C00009D1FDF91CF9108958F929F92AF92BF92D7
:100C10000F931F93CF93DF93CDB7DEB7A1970FB696
:100C2000F894DEBF0FBECDBF19A2423008F44AE0EF
:100C30008E010F5D1F4F842E912CB12CA12CA5018C
:100C400094010E94340EE62FB901CA01EA30F4F48F
:100C5000E05DD801EE938D01232B242B252B79F712
:100C600090E080E0109719F0CD010E94E705A19671
:100C70000FB6F894DEBF0FBECDBFDF91CF911F91AD
:100C80000F91BF90AF909F908F900895E95CE1CF56
:100C9000BC0190E080E04AE00C9404064F925F9221
:100CA0006F927F928F929F92AF92BF92CF92DF927C
:100CB000EF92FF920F931F93CF936B017C01742EE1
:100CC000AC019B010E942F0E882399F087E192E0EE
:100CD000CF911F910F91FF90EF90DF90CF90BF9039
:100CE000AF909F908F907F906F905F904F900C94FB
:100CF000E70546015701E894B7F82FEF3FEF4FE7BC
:100D00005FE7C501B4010E942F0E81110DC02FEFC6
:100D10003FEF4FE75FE7C501B4010E94650C18166D
:100D20001CF48BE192E0D4CF2FEF3FEF4FE75FE46D
:100D3000C701B6010E94BD0D18161CF48FE192E0A8
:100D4000C7CF2FEF3FEF4FE75FECC701B6010E941F
:100D5000650C87FDF3CF20E030E0A901C701B601A3
:100D60000E94650C10E000E087FF08C08DE20E9441
:100D700033058C01F7FAF094F7F8F094C0E060E0E6
:100D800070E080E09FE37C1641F020E030E040E23C
:100D900051E40E946A0CCF5FF6CFA70196010E9432
:100DA000F90B2B013C010E94DC0C4B015C014AE079
:100DB0000E9404067C01E00EF11ECC2399F1C501CE
:100DC000B4010E940B0D9B01AC01C301B2010E9452
:100DD000F80B4B015C018EE20E943305E80EF91E10
:100DE000C15000F120E030E040E251E4C501B4011F
:100DF0000E94C20D2B013C010E94DC0C4B01CB0177
:100E00000E944806E80EF91EB40190E080E00E94BE
:100E10000B0D9B01AC01C301B2010E94F80B4B0109
:100E20005C01DECFC701CF911F910F91FF90EF9032
:100E3000DF90CF90BF90AF909F908F907F906F90FA
:100E40005F904F9008958F929F92AF92BF92CF92F2
:100E5000DF92EF92FF920F931F93CF93DF930E9445
:100E6000F40586E592E00E9418052FB7F89460918A
:100E7000C5047091C6048091C7049091C8042FBF27
:100E80000091240210912502209126023091270220
:100E9000601B710B820B930B0E940B0D20E030E066
:100EA0004AE754E40E946A0C41E00E944E068EE438
:100EB00092E00E94F80580910102882309F48AC01B
:100EC00082EE91E00E94F80588EB91E00E94F8051F
:100ED000C0EFD2E082E0C82ED12CE12CF12C10E042
:100EE0008885882329F08C819D81892B09F454C041
:100EF0001F5F84EB91E00E9418054AE0C701B6012C
:100F00000E9404068EEF8C0D883018F480E20E9457
:100F1000330588858111E9C088E991E00E941805B0
:100F200081EB91E00E9418058C819D810E9448060A
:100F30008AEA91E00E9418058E819F818F3F980771
:100F400009F0D6C086E991E00E9418058BE891E08F
:100F50000E9418052FB7F8946091C5047091C604DB
:100F60008091C7049091C8042FBF88809980AA807F
:100F7000BB80681979098A099B090E940B0D20E042
:100F800030E04AE754E40E946A0C41E00E944E06B9
:100F900085E891E00E94F80529968FEFC81AD80AD3
:100FA000E80AF80A26E3C216D104E104F10409F0C4
:100FB00097CF11110FC08EE791E00E9418054AE00B
:100FC00064E370E080E090E00E94040688E491E031
:100FD0000E94F80580910002882309F478C081E41A
:100FE00092E00E94F8058BE192E00E94F805CCE2C5
:100FF000D2E0C12CD12C76010C811D818A819B818C
:10100000081B190B0530110528F488819981089770
:1010100008F450C087E192E00E9418054AE0C70139
:10102000B6010E94040689E08C1518F080E20E9447
:10103000330584E192E00E941805888199810E941D
:10104000480680E192E00E9418058A819B810E94F7
:1010500048068CE092E00E9418058C819D810E94D8
:10106000480688E092E00E9418052A853B8560E0EA
:1010700070E0CB012115310551F050E040E06E8168
:101080007F81888599850E94340ECA01B9014AE0A2
:101090000E94040684E092E00E941805C8010E94A4
:1010A00048060333110520F080EF91E00E941805F7
:1010B0000E94F4052C962FEFC21AD20AE20AF20A15
:1010C00080E1C816D104E104F10409F095CFDF9165
:1010D000CF911F910F91FF90EF90DF90CF90BF9035
:1010E000AF909F908F900C94F40581EA91E016CF19
:1010F0000E94480683E991E027CF1F920F920FB616
:101100000F9211242F933F938F939F93AF93BF938D
:101110008091C5049091C604A091C704B091C80401
:101120003091C40423E0230F2D3758F50196A11DFB
:10113000B11D2093C4048093C5049093C604A0936A
:10114000C704B093C8048091C9049091CA04A091C7
:10115000CB04B091CC040196A11DB11D8093C904AC
:101160009093CA04A093CB04B093CC04BF91AF91E9
:101170009F918F913F912F910F900FBE0F901F90D5
:10118000189526E8230F0296A11DB11DD2CF1F92FC
:101190000F920FB60F9211240BB60F922F933F931D
:1011A0004F935F936F937F938F939F93AF93BF936F
:1011B000EF93FF938DEC94E00E94A904FF91EF91CF
:1011C000BF91AF919F918F917F916F915F914F915F
:1011D0003F912F910F900BBE0F900FBE0F901F905D
:1011E00018951F920F920FB60F9211240BB60F9203
:1011F0002F938F939F93EF93FF93E091DD04F091F2
:10120000DE048081E091E304F091E40482FD1DC0DE
:1012100090818091E6048F5F8F732091E70482179D
:1012200041F0E091E604F0E0E353FB4F958F8093AB
:10123000E604FF91EF919F918F912F910F900BBE3C
:101240000F900FBE0F901F9018958081F2CF789469
:1012500084B5826084BD84B5816084BD85B58260BB
:1012600085BD85B5816085BD80916E00816080936C
:101270006E001092810080918100826080938100D5
:1012800080918100816080938100809180008160E5
:10129000809380008091B10084608093B100809140
:1012A000B00081608093B000809191008260809353
:1012B00091008091910081608093910080919000D5
:1012C0008160809390008091A10082608093A10052
:1012D0008091A10081608093A1008091A000816035
:1012E0008093A000809121018260809321018091F0
:1012F0002101816080932101809120018160809390
:10130000200180917A00846080937A0080917A0035
:10131000826080937A0080917A00816080937A0065
:1013200080917A00806880937A001092C100E091E9
:10133000DD04F091DE0482E08083E091D904F09135
:10134000DA041082E091DB04F091DC0480E1808318
:101350001092E504E091E104F091E20486E08083DC
:10136000E091DF04F091E004808180618083E0916E
:10137000DF04F091E004808188608083E091DF04E5
:10138000F091E004808180688083E091DF04F09137
:10139000E00480818F7D808342E050E0FA01E052DA
:1013A000FA4F2491FA01E656FA4F84918823C1F04E
:1013B00090E0880F991FFC01EE57FD4FC591D49125
:1013C000FC01E859FD4FA591B4919FB7F89438817D
:1013D000822F809583238883EC91E22BEC939FBF2F
:1013E0004F5F5F4F46335105C9F60E9410044B0111
:1013F0005C0122E3C22ED12CE12CF12C0E941004BE
:10140000681979098A099B09683E7340810591052D
:10141000A8F321E0C21AD108E108F10838EE830EE2
:1014200033E0931EA11CB11CC114D104E104F104EA
:1014300029F70E9489050E94F40580E294E00E9449
:10144000F8058FEE93E00E94F8058CEB93E00E9484
:10145000F8058FEA93E00E9418054AE062E070E028
:1014600080E090E00E9404068BEA93E00E94180559
:101470004AE065E370E080E090E00E94040681E8C5
:1014800093E00E94F8058CE593E00E94F8058EE356
:1014900093E00E94F80586E093E00E94F80583ED52
:1014A00092E00E94F8058CE992E00E94F8050E9403
:1014B000F40522242394312C8FB7F894C090C504EE
:1014C000D090C604E090C704F090C8048FBF80910C
:1014D0000102882309F47CC0C0EFD2E082E0882EAC
:1014E000912CA12CB12C882D0E946A038C0121E043
:1014F000892B09F420E08885281709F45CC08881CD
:101500009981AA81BB8126013701481A590A6A0AC2
:101510007B0A8C819D81009759F04E815F8170E03C
:1015200060E0441655066606770610F45F824E8228
:101530002887C882D982EA82FB8201969D838C83A8
:1015400087E795E00E9418054AE0C701B6010E94AE
:10155000040681E795E00E9418054AE0C501B40140
:101560000E94040680E495E0012B11F08EE495E0E2
:101570000E94180588E695E00E9418054AE0C3011C
:10158000B2010E9404068CE595E00E9418058C814A
:101590009D810E9448065AE0451651046104710479
:1015A00040F48C819D81029720F082E395E00E94B7
:1015B00018050E94F40529968FEF881A980AA80A40
:1015C000B80A26E382169104A104B10409F08BCF76
:1015D00080910002882309F45CC08091EC02909114
:1015E000ED02A091EE02B091EF0246015701881A78
:1015F000990AAA0ABB0AD501C401883C9105A10534
:10160000B10508F446C0C092EC02D092ED02E0921F
:10161000EE02F092EF02CCE2D2E016E3812F0E94BC
:10162000F503998388832A813B818217930710F4FD
:101630009B838A832C813D812817390710F49D8371
:101640008C834E815F81688579854A015B01880EB4
:10165000991EA11CB11CC501B4016E837F838887CC
:1016600099872A853B852F5F3F4F3B872A87213308
:1016700045E7340750F050E040E00E94340E2E83DE
:101680003F83488759873B862A861F5F2C961634EE
:1016900029F68091280290912902A0912A02B09106
:1016A0002B0246015701881A990AAA0ABB0AD501DA
:1016B000C401883B9B40A105B10550F0C0922802AF
:1016C000D0922902E0922A02F0922B020E94230774
:1016D0008DEC94E00E949304892B09F459C08DECA1
:1016E00094E00E94710488369105F9F0BCF48136CB
:1016F0009105E9F18436910559F7C091010231E075
:10170000C327C093010283E195E00E9418058CE095
:1017100095E0CC2349F180E195E026C08237910520
:10172000F9F08337910591F2D3CF83EE94E00E94D4
:10173000F80584ED94E00E94F80585EB94E00E94A2
:10174000F8058EE894E00E94F80580E794E00E9496
:10175000F80583E594E00E94F8050E94F405B8CFEF
:101760000E94890586E295E00E94F805B1CFC091FC
:10177000000241E0C427C09300028AEF94E00E9477
:10178000180583EF94E0CC2379F387EF94E0ECCF56
:101790000E94580591CEEDECF4E01382128288EE9F
:1017A00093E0A0E0B0E084839583A683B78386E0CE
:1017B00092E09183808385EC90E09587848784EC28
:1017C00090E09787868780EC90E0918B808B81EC0E
:1017D00090E0938B828B82EC90E0958B848B86ECEF
:1017E00090E0978B868B118E128E138E148E089537
:1017F0005058BB27AA270E94100C0C94830D0E94FE
:10180000750D38F00E947C0D20F039F49F3F19F4DB
:1018100026F40C94720D0EF4E095E7FB0C946C0D1D
:10182000E92F0E94940D58F3BA17620773078407D3
:10183000950720F079F4A6F50C94B60D0EF4E0951A
:101840000B2EBA2FA02D0B01B90190010C01CA017A
:10185000A0011124FF27591B99F0593F50F4503E25
:1018600068F11A16F040A22F232F342F4427585F17
:10187000F3CF469537952795A795F0405395C9F72F
:101880007EF41F16BA0B620B730B840BBAF09150E7
:10189000A1F0FF0FBB1F661F771F881FC2F70EC086
:1018A000BA0F621F731F841F48F487957795679559
:1018B000B795F7959E3F08F0B0CF9395880F08F045
:1018C0009927EE0F9795879508950E94480D08F483
:1018D00081E008950E947E0C0C94830D0E947C0D83
:1018E00058F00E94750D40F029F45F3F29F00C94E8
:1018F0006C0D51110C94B70D0C94720D0E94940D47
:1019000068F39923B1F3552391F3951B550BBB272E
:10191000AA2762177307840738F09F5F5F4F220F73
:10192000331F441FAA1FA9F335D00E2E3AF0E0E86A
:1019300032D091505040E695001CCAF72BD0FE2FB4
:1019400029D0660F771F881FBB1F26173707480748
:10195000AB07B0E809F0BB0B802DBF01FF27935800
:101960005F4F3AF09E3F510578F00C946C0D0C944B
:10197000B70D5F3FE4F3983ED4F38695779567956E
:10198000B795F7959F5FC9F7880F911D9695879535
:1019900097F90895E1E0660F771F881FBB1F621754
:1019A00073078407BA0720F0621B730B840BBA0B12
:1019B000EE1F88F7E09508950E949C0D88F09F57D0
:1019C00098F0B92F9927B751B0F0E1F0660F771F63
:1019D000881F991F1AF0BA95C9F714C0B13091F059
:1019E0000E94B60DB1E008950C94B60D672F782FC4
:1019F0008827B85F39F0B93FCCF38695779567951E
:101A0000B395D9F73EF490958095709561957F4F89
:101A10008F4F9F4F0895E89409C097FB3EF490952F
:101A20008095709561957F4F8F4F9F4F9923A9F0B7
:101A3000F92F96E9BB279395F69587957795679546
:101A4000B795F111F8CFFAF4BB0F11F460FF1BC08A
:101A50006F5F7F4F8F4F9F4F16C0882311F096E91D
:101A600011C0772321F09EE8872F762F05C06623CB
:101A700071F096E8862F70E060E02AF09A95660F84
:101A8000771F881FDAF7880F9695879597F908953D
:101A9000990F0008550FAA0BE0E8FEEF161617067F
:101AA000E807F907C0F012161306E407F50798F0E7
:101AB000621B730B840B950B39F40A2661F0232B00
:101AC000242B252B21F408950A2609F4A140A6957C
:101AD0008FEF811D811D089597F99F6780E870E061
:101AE00060E008959FEF80EC089500240A94161694
:101AF000170618060906089500240A9412161306FC
:101B0000140605060895092E0394000C11F4882389
:101B100052F0BB0F40F4BF2B11F460FF04C06F5FA5
:101B20007F4F8F4F9F4F089557FD9058440F551F7B
:101B300059F05F3F71F04795880F97FB991F61F04F
:101B40009F3F79F087950895121613061406551FC6
:101B5000F2CF4695F1DF08C0161617061806991F32
:101B6000F1CF86957105610508940895E894BB2727
:101B700066277727CB0197F908950E94480D08F44E
:101B80008FEF08950E94D50D0C94830D0E94750D62
:101B900038F00E947C0D20F0952311F00C946C0D10
:101BA0000C94720D11240C94B70D0E94940D70F3D7
:101BB000959FC1F3950F50E0551F629FF001729FF2
:101BC000BB27F00DB11D639FAA27F00DB11DAA1F01
:101BD000649F6627B00DA11D661F829F2227B00D4E
:101BE000A11D621F739FB00DA11D621F839FA00DD9
:101BF000611D221F749F3327A00D611D231F849F29
:101C0000600D211D822F762F6A2F11249F5750407F
:101C10009AF0F1F088234AF0EE0FFF1FBB1F661FFA
:101C2000771F881F91505040A9F79E3F510580F0C3
:101C30000C946C0D0C94B70D5F3FE4F3983ED4F315
:101C4000869577956795B795F795E7959F5FC1F767
:101C5000FE2B880F911D9695879597F908950E9400
:101C6000480D880B990B0895A1E21A2EAA1BBB1BE5
:101C7000FD010DC0AA1FBB1FEE1FFF1FA217B30758
:101C8000E407F50720F0A21BB30BE40BF50B661F6E
:101C9000771F881F991F1A9469F760957095809532
:101CA00090959B01AC01BD01CF010895EE0FFF1F80
:101CB000881F8BBF0790F691E02D1994F894FFCF01
:101CC000010100000000CB043504620438059304D0
:101CD000710485040D0A006E616E00696E66006F06
:041CE0007666000024
:00000001FF
