:100000000C94C4040C94F5040C94F5040C94F504BD
:100010000C94F5040C94F5040C94F5040C94F5047C
:100020000C94F5040C94F5040C94F5040C94F5046C
:100030000C94F5040C94F5040C94F5040C94F5045C
:100040000C94F5040C94F5040C94F5040C94F5044C
:100050000C94F5040C94F5040C94F5040C94500BDA
:100060000C94F5040C94C40B0C949A0B0C94F504AA
:100070000C94F5040C94F5040C94F5040C94F5041C
:100080000C94F5040C94F5040C94F5040C94F5040C
:100090000C94F5040C94F5040C94F5040C94F504FC
:1000A0000C94F5040C94F5040C94F5040C94F504EC
:1000B0000C94F5040C94F5040C94F5040C94F504DC
:1000C0000C94F5040C94F5040C94F5040C94F504CC
:1000D0000C94F5040C94F5040C94F5040C94F504BC
:1000E0000C94F5040C945B050C94A90F0C94550525
:1000F0000C9408100C948C060C9478060C942C0527
:100100000C9440050C94DD0E0C9477050C944B0573
:100110000C94070F0C941B100C949E0F0C94DE0F84
:100120000C9471050C949A060C946D050C94F80FC0
:100130000C945F050C9463050C9448050C947B05A6
:100140000C943C050C9427050C943F070C9469060D
:100150000C940E0F0C94820E0C94D2060C943C0658
:100160000C9444050C9469050C94040F0C945105EF
:10017000204C4946543D00323032362D30382D3334
:100180003100312E322E3200465720494F446562ED
:1001900075672000535420002070696E73206964D5
:1001A0006C652048494748202D206E6F7468696E41
:1001B0006720636F6E6E65637465642070756C6C28
:1001C000696E67207468656D20646F776E0020200B
:1001D000616C6C2000732061676F0020202020205C
:1001E0002020006D73002D002020204C4F57202030
:1001F000002020204849474820002020202020209F
:100200000020200020204400202070696E202073F0
:10021000746174652020656467657320206D696E64
:1002200050756C736520206C6173744368616E67F0
:1002300065002D2D206469676974616C202D2D0087
:1002400020203C2D206E6F6973792F6368616E6783
:10025000696E670020202000202020002020200040
:100260002020200020200020204100202063682042
:1002700020206E6F772020206D696E2020206D6118
:1002800078202020206176672020207377696E67B0
:10029000002D2D20616E616C6F67202D2D00732065
:1002A0003D3D3D3D3D003D3D3D3D3D20736E61701A
:1002B00073686F74204020005761746368696E67CB
:1002C00020666F722065646765732E20546F7563B6
:1002D0006820612070696E20746F20474E4420743E
:1002E0006F2073656520697420666972652E002D24
:1002F0002D2D2D2D2D2D2D2D2D2D2D2D2D2D2D2D2E
:100300002D2D2D2D2D2D2D2D2D2D2D2D2D2D2D2D1D
:100310002D2D2D2D2D2D2D2D2D2D2D2D2D2D2D2D0D
:100320002D0020636F6D6D616E64733A20683D68C7
:10033000656C7020733D736E617073686F742072AA
:100340003D726573657420643D6469676974616CAE
:1003500020613D616E616C6F670020736B69707026
:100360006564203A2044302F4431202D20555342DB
:100370002073657269616C0020616E616C6F67202B
:10038000203A2041302E2E41313520286869676897
:100390002D5A2C20302E2E313032332900202028A7
:1003A000494E5055545F50554C4C5550202D20759A
:1003B0006E636F6E6E6563746564207265616473ED
:1003C000204849474829002E2E4400206469676967
:1003D00074616C203A2044003D3D3D3D3D3D3D3D36
:1003E0003D3D3D3D3D3D3D3D3D3D3D3D3D3D3D3D3D
:1003F0003D3D3D3D3D3D3D3D3D3D3D3D3D3D3D3D2D
:100400003D3D3D3D3D3D3D3D3D3D00202D2041726A
:100410006475696E6F204D65676120323536302016
:10042000492F4F207369676E616C20646562756740
:1004300067657200312E322E320020494F446562CA
:10044000756720003D3D3D3D3D3D3D3D3D3D3D3DD4
:100450003D3D3D3D3D3D3D3D3D3D3D3D3D3D3D3DCC
:100460003D3D3D3D3D3D3D3D3D3D3D3D3D3D3D3DBC
:100470003D3D3D3D3D3D002020612020746F67677C
:100480006C6520616E616C6F67207265706F72744D
:10049000696E67002020642020746F67676C652098
:1004A0006469676974616C207265706F7274696EDB
:1004B00067002020722020726573657420616C6C67
:1004C00020636F756E7465727320616E642073743F
:1004D00061746973746963730020207720207761E9
:1004E000746368206D6F6465202D20656D697420CC
:1004F000275354203C6D733E203C6D61736B3E2747
:10050000206F6E2065766572792070696E20636851
:10051000616E67650020207A2020746F67676C65C4
:1005200020494E5055545F50554C4C5550203C2D51
:100530003E20494E50555420686967682D5A20283E
:1005400075736520686967682D5A206F6E206C6925
:10055000766520776972696E6729002020702020F7
:10056000636861726163746572697365206576653D
:1005700072792070696E2028726561642D6F6E6CCF
:10058000792C206E657665722064726976657320B9
:10059000612070696E290020207320207072696EBE
:1005A0007420612066756C6C20736E617073686F67
:1005B00074206E6F77002020682020746869732093
:1005C00068656C70000A2D2D20636F6D6D616E641F
:1005D00073202D2D002020776974686F7574206456
:1005E000726976696E67207468656D2C207768691A
:1005F0006368206973206E6F7420646F6E65206875
:100600006572652E00202050696E732072656164EA
:10061000696E6720484947482061726520696E64A9
:10062000697374696E677569736861626C65206669
:10063000726F6D20756E636F6E6E656374656400B6
:100640002070696E73206861766520736F6D6574C4
:1006500068696E6720617474616368656420707591
:100660006C6C696E67207468656D20646F776E2EA0
:1006700000206F66200020202D3E2000666C6963FC
:100680006B6572732020206E6F697365202D204189
:1006900043207069636B7570206F6E20616E206FF0
:1006A00070656E2D656E646564207769726500689B
:1006B000656C64202020202020205749524544208A
:1006C0002D2061207265616C206C6F616420686F01
:1006D0006C647320697420646F776E002020202082
:1006E000204C4F5720202020202020002020440094
:1006F000202070696E20202070756C6C65642D75EB
:1007000070202020686967682D5A20202076657245
:1007100064696374003D3D3D3D3D2070696E20631A
:10072000686172616374657269736174696F6E2068
:1007300028726561642D6F6E6C792C206E6576650C
:10074000722064726976657329203D3D3D3D3D0010
:100750004F4646004F4E00616E616C6F67207265B8
:10076000706F7274696E6720004F4646004F4E00EE
:100770006469676974616C207265706F7274696E08
:10078000672000494E50555420686967682D5A20EB
:1007900028736166657374206F6E206C69766520BE
:1007A000776972696E672900494E5055545F5055FC
:1007B0004C4C5550202864657465637473206C6FCD
:1007C0006164732900696E707574206D6F646520B3
:1007D0006E6F7720004F4646004F4E202D20656DEE
:1007E000697474696E67205354206C696E65732058
:1007F0006F6E206576657279206368616E6765004B
:100800007761746368206D6F646520007374617430
:1008100073207265736574002020203C2D20424FA8
:10082000554E43453F00202048494748202D3E2053
:100830004C4F570020204C4F57202D3E2048494711
:1008400048006D7320202065646765733D0020209B
:100850002068656C643D006D73202044004544476A
:10086000452020743D0000002200250028002B00B8
:100870002E003100340002010000050108010B01C7
:1008800000002100240027002A002D003000330042
:1008900001010000040107010A01000020002300FB
:1008A000260029002C002F00320000010000030167
:1008B00006010901050505050705080808080202E3
:1008C00002020A0A080804040404010101010101EA
:1008D00001010303030303030303040707070C0CCD
:1008E0000C0C0C0C0C0C0202020206060606060694
:1008F00006060B0B0B0B0B0B0B0B01021020200839
:10090000081020401020408002010201080402016A
:1009100001020408102040808040201008040201D9
:100920008004020180402010080402010804020132
:1009300001020408102040800102040810204080B9
:1009400000000A0B02090C0D0E0807030401000049
:100950000000000000000000000000000000000097
:100960000000000000000000000000001211100054
:100970000000000000000000000000000000000077
:100980000000000000001B1011241FBECFEFD1E2B9
:10099000DEBFCDBF00E00CBF12E0A0E0B2E0EEEDA4
:1009A000F5E200E00BBF02C007900D92A432B10740
:1009B000D9F725E0A4E2B2E001C01D92AB37B2073F
:1009C000E1F714E0C4ECD4E000E006C0219701098F
:1009D000802FFE010E94A612C33CD10780E00807C9
:1009E000A9F70E94FA0B0C94ED120C940000282F2A
:1009F00030E0F901E05CF64F9491F901E650F74FD1
:100A000044912C54374FF9012491222309F477C0E3
:100A1000992311F191509231F8F4E92FF0E08827F1
:100A2000EB5EFA4F8F4F0C94A6124405480527053C
:100A30003C0540052C054B05510555055B055F053B
:100A4000630569056D052C05710577057B058091AA
:100A500080008F7780938000E22FF0E0EE0FFF1F81
:100A6000E656F74FA591B491EC91E42381E090E034
:100A700009F047C080E00895809180008F7DEACF23
:100A800080918000877FE6CF84B58F7784BDE4CFE7
:100A900084B58F7DFBCF8091B0008F778093B000BD
:100AA000DBCF8091B0008F7DF9CF809190008F7760
:100AB00080939000D1CF809190008F7DF9CF80916D
:100AC0009000877FF5CF8091A0008F778093A00062
:100AD000C3CF8091A0008F7DF9CF8091A000877F48
:100AE000F5CF809120018F7780932001B5CF809141
:100AF00020018F7DF9CF80912001877FF5CF80E0A5
:100B000090E00895CF93DF9390E0FC01E650F74F1B
:100B100024918C54974FFC0184918823C9F090E074
:100B2000880F991FFC01E058F74FA591B491FC0183
:100B3000EA59F74FC591D49161110DC09FB7F89450
:100B40008C91209582238C938881282328839FBFB2
:100B5000DF91CF910895623051F49FB7F8943C91A2
:100B6000822F809583238C93E8812E2BEFCF8FB734
:100B7000F894EC912E2B2C938FBFEACF86532091C3
:100B80007B00982F987F277F922B90937B00877014
:100B9000806480937C0080917A00806480937A00E6
:100BA00080917A0086FDFCCF809178009091790049
:100BB00008953FB7F8948091DA049091DB04A091F6
:100BC000DC04B091DD0426B5A89B05C02F3F19F0C9
:100BD0000196A11DB11D3FBFBA2FA92F982F8827BD
:100BE000BC01CD01620F711D811D911D42E0660F98
:100BF000771F881F991F4A95D1F708958F929F926A
:100C0000AF92BF92CF92DF92EF92FF924B015C01C5
:100C10000E94D9056B017C010E94D9056C197D09E0
:100C20008E099F09683E734081059105A8F321E074
:100C3000821A9108A108B10888EEC80E83E0D81E78
:100C4000E11CF11C81149104A104B10429F7FF9067
:100C5000EF90DF90CF90BF90AF909F908F900895CE
:100C60002FB7F8946091D6047091D7048091D8047E
:100C70009091D9042FBF0895AF92BF92CF92DF9287
:100C8000EF92FF920F931F93CF93DF936C017B0141
:100C90008B01040F151FEB015E01AE18BF08C017D2
:100CA000D10759F06991D601ED91FC910190F08145
:100CB000E02DC6011995892B79F7C501DF91CF91F8
:100CC0001F910F91FF90EF90DF90CF90BF90AF906A
:100CD0000895FC01538D448D252F30E0842F90E042
:100CE000821B930B541710F0CF9608950197089527
:100CF000FC01918D828D981761F0A28DAE0FBF2FF0
:100D0000B11D5D968C91928D9F5F9F73928F90E045
:100D100008958FEF9FEF0895FC01918D828D9817B4
:100D200031F0828DE80FF11D858D90E008958FEFF1
:100D30009FEF0895FC01918D228D892F90E0805CBA
:100D40009F4F821B91098F73992708958EED94E030
:100D50000E949A0621E0892B09F420E0822F089551
:100D6000FC01A48DA80FB92FB11DA35ABF4F2C9120
:100D7000848D90E001968F739927848FA689B78917
:100D80002C93A089B1898C91837080648C93938D0E
:100D9000848D981306C00288F389E02D80818F7DB1
:100DA00080830895EF92FF920F931F93CF93DF9369
:100DB000EC0181E0888F9B8D8C8D98131AC0E88997
:100DC000F989808185FF15C09FB7F894EE89FF8966
:100DD0006083E889F98980818370806480839FBF04
:100DE00081E090E0DF91CF911F910F91FF90EF9004
:100DF0000895F62E0B8D10E00F5F1F4F0F73112714
:100E0000E02E8C8D8E110CC00FB607FCFACFE8894E
:100E1000F989808185FFF5CFCE010E94B006F1CF20
:100E2000EB8DEC0FFD2FF11DE35AFF4FF0829FB7C2
:100E3000F8940B8FEA89FB8980818062CFCF0F9372
:100E40001F93CF93DF938C01D0E0C0E0F801EC0F4B
:100E5000FD1F6491662341F08EED94E00E94D2065E
:100E6000892B11F02196F2CFCE01DF91CF911F9106
:100E70000F910895682F8EED94E00C94D206CF93D5
:100E8000DF93EC01888D8823B9F0AA89BB89E889B2
:100E9000F9898C9185FD03C0808186FD0DC00FB658
:100EA00007FCF7CF8C9185FFF2CF808185FFEDCFD6
:100EB000CE010E94B006E9CFDF91CF91089580E086
:100EC00090E0892B29F00E94A60681110E94000063
:100ED00080E090E0892B49F080E090E0892B29F0B8
:100EE0000E94000081110E94000080E090E0892BA8
:100EF00049F080E090E0892B29F00E9400008111E8
:100F00000E94000080E090E0892B49F080E090E0B2
:100F1000892B29F00E94000081110C940000089593
:100F20009F92AF92BF92CF92DF92EF92FF920F9378
:100F30001F93CF93DF93D0E0C0E0912CA12CB12C74
:100F4000C12CD12CE12CF12C10E08C2F8E5F0E9453
:100F5000F704892B99F021E030E040E050E060E0B8
:100F600070E080E090E00C2F0E94AE12922AA32A3B
:100F7000B42AC52AD62AE72AF82A192B2196C4337F
:100F8000D10519F7292D3A2D4B2D5C2D6D2D7E2D78
:100F90008F2D912FDF91CF911F910F91FF90EF90A7
:100FA000DF90CF90BF90AF909F9008958F929F92C7
:100FB000AF92BF92EF92FF920F931F93CF930E9435
:100FC00030064B015C0101E013E0C2E0EE24EA943C
:100FD000FE2C8C2F0E94F70421E0892B09F420E0DD
:100FE000F801208780829182A282B38215821482C6
:100FF000F782E682CF5F075F1F4FC63351F70CE2DF
:1010000012E0EE24E394F12C8C2F0E94BE05F8012F
:10101000918380839383828395838483B0E0A0E06F
:1010200086839783A087B187F386E286CF5F045FCC
:101030001F4FC63449F78092240290922502A09255
:101040002602B0922702CF911F910F91FF90EF904F
:10105000BF90AF909F908F900895CF93C2E0809102
:10106000000260E0811162E08C2F0E948205CF5F58
:10107000C633A9F7CF910895FC0101900020E9F74C
:101080003197AF01481B590BBC018EED94E00C94D5
:101090003C0685E192E00C943C08CF93DF930E94DC
:1010A0001F07EC010E9449088C0F9D1FDF91CF9113
:1010B00008958F929F92AF92BF920F931F93CF93F9
:1010C000DF93CDB7DEB7A1970FB6F894DEBF0FBEA2
:1010D000CDBF19A2423008F44AE08E010F5D1F4FC8
:1010E000842E912CB12CA12CA50194010E94841274
:1010F000E62FB901CA01EA30F4F4E05DD801EE93BD
:101100008D01232B242B252B79F790E080E010977D
:1011100019F0CD010E943C08A1960FB6F894DEBFED
:101120000FBECDBFDF91CF911F910F91BF90AF90B8
:101130009F908F900895E95CE1CFBC0190E080E042
:101140004AE00C9459084F925F926F927F928F926F
:101150009F92AF92BF92CF92DF92EF92FF920F9346
:101160001F93CF936B017C01742EAC019B010E94F5
:101170007F12882399F088E192E0CF911F910F911F
:10118000FF90EF90DF90CF90BF90AF909F908F90A7
:101190007F906F905F904F900C943C0846015701F0
:1011A000E894B7F82FEF3FEF4FE75FE7C501B401D1
:1011B0000E947F1281110DC02FEF3FEF4FE75FE7D5
:1011C000C501B4010E94B51018161CF48CE192E020
:1011D000D4CF2FEF3FEF4FE75FE4C701B6010E9486
:1011E0000D1218161CF480E292E0C7CF2FEF3FEFEC
:1011F0004FE75FECC701B6010E94B51087FDF3CF42
:1012000020E030E0A901C701B6010E94B51010E04E
:1012100000E087FF08C08DE20E943A078C01F7FAD0
:10122000F094F7F8F094C0E060E070E080E09FE3B5
:101230007C1641F020E030E040E251E40E94BA1018
:10124000CF5FF6CFA70196010E9449102B013C0108
:101250000E942C114B015C014AE00E9459087C015C
:10126000E00EF11ECC2399F1C501B4010E945B117F
:101270009B01AC01C301B2010E9448104B015C010B
:101280008EE20E943A07E80EF91EC15000F120E0FC
:1012900030E040E251E4C501B4010E9412122B017A
:1012A0003C010E942C114B01CB010E949D08E80ECD
:1012B000F91EB40190E080E00E945B119B01AC013B
:1012C000C301B2010E9448104B015C01DECFC7018F
:1012D000CF911F910F91FF90EF90DF90CF90BF9033
:1012E000AF909F908F907F906F905F904F900895F8
:1012F000CF92DF92EF92FF92CF93DF9397FF19C0C7
:101300006B017C018DE20E943A07EC01662777278A
:10131000CB016C197D098E099F094AE00E9459088A
:101320008C0F9D1FDF91CF91FF90EF90DF90CF90BA
:1013300008954AE0DF91CF91FF90EF90DF90CF903A
:101340000C94590888E891E00E941F0782E891E018
:101350000E941F0780E20E943A0787E791E00E94FF
:101360001F0780E791E00E941F0761E070E080E0C6
:1013700090E00E9478090C9449088F929F92AF9256
:10138000BF92CF92DF92EF92FF920F931F93CF9372
:10139000DF930E94490886EA92E00E941F070E949C
:1013A00030060091240210912502209126023091EE
:1013B0002702601B710B820B930B0E945B1120E0D4
:1013C00030E04AE754E40E94BA1041E00E94A308CA
:1013D0008EE992E00E944D0880910202882309F470
:1013E00080C082E392E00E944D0888E092E00E9473
:1013F0004D08C1E0D3E082E0C82ED12CE12CF12CC5
:1014000010E08885882329F08C819D81892B09F43F
:101410004AC01F5F84E092E00E941F07C701B60127
:101420000E9478098EEF8C0D883018F480E20E94BB
:101430003A0788858111E0C088EE91E00E941F077D
:1014400081E092E00E941F078C819D810E949D088F
:101450008AEF91E00E941F078E819F818F3F98073E
:1014600009F0CDC086EE91E00E941F078BED91E060
:101470000E941F070E94300688809980AA80BB8046
:10148000681979098A099B090E945B1120E030E004
:101490004AE754E40E94BA1041E00E94A30885ED97
:1014A00091E00E944D0829968FEFC81AD80AE80AE1
:1014B000F80A26E3C216D104E104F10409F0A1CF31
:1014C00011110FC08EEC91E00E941F074AE064E307
:1014D00070E080E090E00E94590888E991E00E9465
:1014E0004D088091F002882309F478C081E992E0E8
:1014F0000E944D088BE692E00E944D08CCE2D2E0BB
:10150000C12CD12C76010C811D818A819B81081B05
:10151000190B0530110528F488819981089708F482
:1015200050C087E692E00E941F074AE0C701B6015B
:101530000E94590889E08C1518F080E20E943A0751
:1015400084E692E00E941F07888199810E949D088D
:1015500080E692E00E941F078A819B810E949D087D
:101560008CE592E00E941F078C819D810E949D085E
:1015700088E592E00E941F072A853B8560E070E0C5
:10158000CB012115310551F050E040E06E817F81A3
:10159000888599850E948412CA01B9014AE00E9497
:1015A000590884E592E00E941F07C8010E949D0827
:1015B0000333110520F080E492E00E941F070E948F
:1015C00049082C962FEFC21AD20AE20AF20A80E1E9
:1015D000C816D104E104F10409F095CFDF91CF9151
:1015E0001F910F91FF90EF90DF90CF90BF90AF9041
:1015F0009F908F900C94490881EF91E01FCF0E943B
:101600009D0883EE91E030CF2F923F924F925F92F0
:101610006F927F928F929F92AF92BF92CF92DF9202
:10162000EF92FF920F931F93CF93DF9339014A01FB
:101630005B016C0184E991E00E941F074AE0C80148
:10164000B7010E94590880E20E943A07C0E3D0E047
:101650009301A401B501C6010C2F0E94C9122F707D
:10166000622F70E090E080E040E10E9459082497EA
:10167000CC3F8FEFD80761F7DF91CF911F910F918A
:10168000FF90EF90DF90CF90BF90AF909F908F90A2
:101690007F906F905F904F903F902F900C944908EF
:1016A0001F920F920FB60F9211242F933F938F9397
:1016B0009F93AF93BF938091D6049091D704A0914C
:1016C000D804B091D9043091D50423E0230F2D37ED
:1016D00058F50196A11DB11D2093D5048093D60421
:1016E0009093D704A093D804B093D9048091DA04DE
:1016F0009091DB04A091DC04B091DD040196A11D62
:10170000B11D8093DA049093DB04A093DC04B093C2
:10171000DD04BF91AF919F918F913F912F910F90D9
:101720000FBE0F901F90189526E8230F0296A11D5B
:10173000B11DD2CF1F920F920FB60F9211240BB68C
:101740000F922F933F934F935F936F937F938F935A
:101750009F93AF93BF93EF93FF938EED94E00E941E
:10176000B006FF91EF91BF91AF919F918F917F91C3
:101770006F915F914F913F912F910F900BBE0F9002
:101780000FBE0F901F9018951F920F920FB60F92D9
:1017900011240BB60F922F938F939F93EF93FF9388
:1017A000E091EE04F091EF048081E091F404F09177
:1017B000F50482FD1DC090818091F7048F5F8F73C7
:1017C0002091F804821741F0E091F704F0E0E25232
:1017D000FB4F958F8093F704FF91EF919F918F912D
:1017E0002F910F900BBE0F900FBE0F901F9018956A
:1017F0008081F2CF789484B5826084BD84B58160A5
:1018000084BD85B5826085BD85B5816085BD8091CB
:101810006E00816080936E00109281008091810043
:10182000826080938100809181008160809381003B
:10183000809180008160809380008091B1008460FD
:101840008093B1008091B00081608093B00080915E
:1018500091008260809391008091910081608093DB
:101860009100809190008160809390008091A10010
:1018700082608093A1008091A10081608093A1008B
:101880008091A00081608093A000809121018260FE
:1018900080932101809121018160809321018091B9
:1018A000200181608093200180917A008460809380
:1018B0007A0080917A00826080937A0080917A0029
:1018C000816080937A0080917A00806880937A00AA
:1018D0001092C100E091EE04F091EF0482E0808369
:1018E000E091EA04F091EB041082E091EC04F091B5
:1018F000ED0480E180831092F604E091F204F0910F
:10190000F30486E08083E091F004F091F10480819B
:1019100080618083E091F004F091F104808188601F
:101920008083E091F004F091F104808180688083ED
:10193000E091F004F091F10480818F7D80830E941A
:101940002D0862E370E080E090E00E94FE050E94B6
:10195000D6070E94490884E494E00E944D088AE377
:1019600094E00E941F0784E394E00E941F078BE02D
:1019700094E00E944D0888ED93E00E944D088BECA6
:1019800093E00E941F074AE062E070E080E090E090
:101990000E94590887EC93E00E941F074AE065E324
:1019A00070E080E090E00E9459088DE993E00E9489
:1019B0004D0888E793E00E944D088AE593E00E9475
:1019C0004D0882E293E00E944D088FEE92E00E9463
:1019D0004D0888EB92E00E944D080E9449080E9441
:1019E000A2090E94900749015A016B01D82FC92F03
:1019F0002093F9029092FA024093FB02B092FC020B
:101A00006093FD02D092FE028093FF029093000348
:101A10000E9430067B018C019401A501B6018D2F37
:101A20009C2F0E94040B332433940E9430062B0118
:101A30003C0180910202882309F47FC08091010259
:101A400081117BC0C1E0D3E022E0C22ED12CE12C79
:101A5000F12C8C2D0E94F7048C0121E0892B09F4D4
:101A600020E08885281709F45BC088819981AA81C4
:101A7000BB8153014201881A990AAA0ABB0A8C81C8
:101A80009D81009759F04E815F8170E060E084167F
:101A90009506A606B70610F49F828E822887488294
:101AA00059826A827B8201969D838C838DE598E0C2
:101AB0000E941F074AE0C301B2010E94590887E54E
:101AC00098E00E941F07C701B6010E94780984E3CD
:101AD00098E0012B11F486E298E00E941F078EE443
:101AE00098E00E941F074AE0C501B4010E9459080E
:101AF00082E498E00E941F078C819D810E949D08CE
:101B00000AE080169104A104B10440F48C819D8107
:101B1000029720F088E198E00E941F070E94490880
:101B200029961FEFC11AD10AE10AF10A26E3C2166B
:101B3000D104E104F10409F08CCF809101028823E3
:101B400009F458C00E9490074901D42FC52FB62F21
:101B5000A72FF82FE92FA090F902B090FA02C090B9
:101B6000FB02D090FC02E090FD02F090FE0200919A
:101B7000FF02109100030E94E41209F4F4C02093C4
:101B8000F9029092FA024093FB025093FC02609398
:101B9000FD027093FE028093FF0290930003830185
:101BA00072010E94040B4092F5025092F60260927C
:101BB000F7027092F8028091F1029091F202A091E6
:101BC000F302B091F402A3019201281B390B4A0BD6
:101BD0005B0BDA01C90180339547A105B10550F0CF
:101BE0004092F1025092F2026092F3027092F4027B
:101BF0000E94A2098091F002882309F45EC08091BE
:101C0000EC029091ED02A091EE02B091EF0273010F
:101C10006201C81AD90AEA0AFB0AD701C601883C40
:101C20009105A105B10508F448C04092EC0250921C
:101C3000ED026092EE027092EF02CCE2D2E016E387
:101C4000812F0E94BE05998388832A813B81821758
:101C5000930710F49B838A832C813D8128173907D1
:101C600010F49D838C834E815F81688579856A013C
:101C70007B01C80ED91EE11CF11CC701B6016E83A1
:101C80007F83888799872A853B852F5F3F4F3B87D6
:101C90002A87213305E7300760F050E040E00E94DA
:101CA00084122E833F834887598721E030E03B87A9
:101CB0002A871F5F2C96163419F680910102811134
:101CC0001FC08091280290912902A0912A02B09110
:101CD0002B0273016201C81AD90AEA0AFB0AD7016A
:101CE000C601883B9B40A105B10550F040922802F7
:101CF0005092290260922A0270922B020E94BD0922
:101D0000CBECD7E08EED94E00E949A06892B09F483
:101D10008FC18EED94E00E947806FC01E156F10936
:101D2000EA31F10578F78827E756F14F8F4F0C9489
:101D3000A6120810820E820EF80F9E0F820E820EDF
:101D4000DD0E820E820E820E820E820E820E820EB8
:101D50000E0F820E070F040F820E820E820EA90F45
:101D6000820E820EDE0F4091F5025091F6026091D4
:101D7000F7027091F80273016201C41AD50AE60AEB
:101D8000F70AB701A60140365A4E6105710508F4FD
:101D900012CF4092F5025092F6026092F7027092D2
:101DA000F8028301720194014D2F5C2F6B2F7A2F63
:101DB0008F2F9E2F0E94040BFECE85EC95E00E9493
:101DC0004D0886EB95E00E944D0887E995E00E945A
:101DD0004D088BE595E00E944D0885E195E00E9455
:101DE0004D0889ED94E00E944D0882EB94E00E943A
:101DF0004D0884E994E00E944D0887E794E00E9432
:101E00004D080E9449087ECF0E94BD097BCF0E94E9
:101E1000D6078CE098E00E944D0874CF0E944908D4
:101E200085E197E00E944D0880EF96E00E944D0802
:101E300092E0C92ED12CE12CF12C10E00C2D62E0A7
:101E40008C2D0E948205CE010197F1F78C2D0E9406
:101E5000F704A0900002019799F562E0A11001C07B
:101E600060E0802F0E9482052FEFC21AD20AE20A98
:101E7000F20A36E3C316D104E104F104F9F686E769
:101E800096E00E941F07612F70E090E080E04AE03A
:101E90000E94590881E796E00E941F074AE064E328
:101EA00070E080E090E00E94590880E496E00E9493
:101EB0004D0885E096E00E944D0885ED95E09FCFA6
:101EC00062E08C2D0E948205CE010197F1F788E730
:101ED000B82E802F0E94F704019771F161E070E045
:101EE00080E090E00E94FE05BA94B110F2CFBB24CE
:101EF000B39462E0A11001C060E0802F0E948205CF
:101F00008CEE96E00E941F074AE0C701B6010E94CE
:101F100059080A3018F480E20E943A078CED96E0E6
:101F20000E941F078CE796E0BB2019F01F5F8FEA25
:101F300096E00E944D0898CFB12CDBCF0E9430066E
:101F40006B017C010E949007870176010E94040BBF
:101F5000D9CE1091010213251093010280E098E080
:101F60000E941F0789ED97E0111102C085ED97E0EF
:101F70000E944D0880910102882309F4C3CE0E947B
:101F8000900739014A015B016C012093F9027092BC
:101F9000FA024093FB029092FC026093FD02B09221
:101FA000FE028093FF02D09200030E9430067B0164
:101FB0008C019301A401B501C601C8CF10910002A4
:101FC0001325109300020E942D0864E170E080E068
:101FD00090E00E94FE050E94D60785EC97E00E94E3
:101FE0001F0788EA97E0111116CF83E897E013CF17
:101FF0001091020213251093020280E797E00E94DD
:102000001F078DE697E0111106CF89E697E003CF11
:102010001091F00213251093F00287E597E00E94DB
:102020001F0784E597E01111F6CE80E597E0F3CE27
:102030000E945F07FACCEEEDF4E01382128288EE84
:1020400093E0A0E0B0E084839583A683B78387E024
:1020500092E09183808385EC90E09587848784EC7F
:1020600090E09787868780EC90E0918B808B81EC65
:1020700090E0938B828B82EC90E0958B848B86EC46
:1020800090E0978B868B118E128E138E148E08958E
:102090005058BB27AA270E9460100C94D3110E94AD
:1020A000C51138F00E94CC1120F039F49F3F19F48B
:1020B00026F40C94C2110EF4E095E7FB0C94BC11CD
:1020C000E92F0E94E41158F3BA17620773078407D7
:1020D000950720F079F4A6F50C9406120EF4E0951D
:1020E0000B2EBA2FA02D0B01B90190010C01CA01D2
:1020F000A0011124FF27591B99F0593F50F4503E7D
:1021000068F11A16F040A22F232F342F4427585F6E
:10211000F3CF469537952795A795F0405395C9F786
:102120007EF41F16BA0B620B730B840BBAF091503E
:10213000A1F0FF0FBB1F661F771F881FC2F70EC0DD
:10214000BA0F621F731F841F48F4879577956795B0
:10215000B795F7959E3F08F0B0CF9395880F08F09C
:102160009927EE0F9795879508950E94981108F486
:1021700081E008950E94CE100C94D3110E94CC11DE
:1021800058F00E94C51140F029F45F3F29F00C94EB
:10219000BC1151110C9407120C94C2110E94E4114D
:1021A00068F39923B1F3552391F3951B550BBB2786
:1021B000AA2762177307840738F09F5F5F4F220FCB
:1021C000331F441FAA1FA9F335D00E2E3AF0E0E8C2
:1021D00032D091505040E695001CCAF72BD0FE2F0C
:1021E00029D0660F771F881FBB1F261737074807A0
:1021F000AB07B0E809F0BB0B802DBF01FF27935858
:102200005F4F3AF09E3F510578F00C94BC110C944E
:1022100007125F3FE4F3983ED4F386957795679570
:10222000B795F7959F5FC9F7880F911D969587958C
:1022300097F90895E1E0660F771F881FBB1F6217AB
:1022400073078407BA0720F0621B730B840BBA0B69
:10225000EE1F88F7E09508950E94EC1188F09F57D3
:1022600098F0B92F9927B751B0F0E1F0660F771FBA
:10227000881F991F1AF0BA95C9F714C0B13091F0B0
:102280000E940612B1E008950C940612672F782F71
:102290008827B85F39F0B93FCCF386957795679575
:1022A000B395D9F73EF490958095709561957F4FE1
:1022B0008F4F9F4F0895E89409C097FB3EF4909587
:1022C0008095709561957F4F8F4F9F4F9923A9F00F
:1022D000F92F96E9BB279395F6958795779567959E
:1022E000B795F111F8CFFAF4BB0F11F460FF1BC0E2
:1022F0006F5F7F4F8F4F9F4F16C0882311F096E975
:1023000011C0772321F09EE8872F762F05C0662322
:1023100071F096E8862F70E060E02AF09A95660FDB
:10232000771F881FDAF7880F9695879597F9089594
:10233000990F0008550FAA0BE0E8FEEF16161706D6
:10234000E807F907C0F012161306E407F50798F03E
:10235000621B730B840B950B39F40A2661F0232B57
:10236000242B252B21F408950A2609F4A140A695D3
:102370008FEF811D811D089597F99F6780E870E0B8
:1023800060E008959FEF80EC089500240A941616EB
:10239000170618060906089500240A941216130653
:1023A000140605060895092E0394000C11F48823E1
:1023B00052F0BB0F40F4BF2B11F460FF04C06F5FFD
:1023C0007F4F8F4F9F4F089557FD9058440F551FD3
:1023D00059F05F3F71F04795880F97FB991F61F0A7
:1023E0009F3F79F087950895121613061406551F1E
:1023F000F2CF4695F1DF08C0161617061806991F8A
:10240000F1CF86957105610508940895E894BB277E
:1024100066277727CB0197F908950E94981108F451
:102420008FEF08950E9425120C94D3110E94C511BC
:1024300038F00E94CC1120F0952311F00C94BC11BF
:102440000C94C21111240C9407120E94E41170F331
:10245000959FC1F3950F50E0551F629FF001729F49
:10246000BB27F00DB11D639FAA27F00DB11DAA1F58
:10247000649F6627B00DA11D661F829F2227B00DA5
:10248000A11D621F739FB00DA11D621F839FA00D30
:10249000611D221F749F3327A00D611D231F849F80
:1024A000600D211D822F762F6A2F11249F575040D7
:1024B0009AF0F1F088234AF0EE0FFF1FBB1F661F52
:1024C000771F881F91505040A9F79E3F510580F01B
:1024D0000C94BC110C9407125F3FE4F3983ED4F3C4
:1024E000869577956795B795F795E7959F5FC1F7BF
:1024F000FE2B880F911D9695879597F908950E9458
:102500009811880B990B0895A1E21A2EAA1BBB1BE8
:10251000FD010DC0AA1FBB1FEE1FFF1FA217B307AF
:10252000E407F50720F0A21BB30BE40BF50B661FC5
:10253000771F881F991F1A9469F760957095809589
:1025400090959B01AC01BD01CF010895EE0FFF1FD7
:10255000881F8BBF0790F691E02D1994002E08304C
:1025600090F0982F872F762F652F542F432F322FDF
:1025700022270850F4CF220F331F441F551F661F18
:10258000771F881F991F0A95B2F7002D089597FDB0
:102590001094002E083098F00850232F342F452F28
:1025A000562F672F782F892F912DF4CF159497955B
:1025B00087957795679557954795379527950A9508
:1025C000AAF71124002D08952A153B054C055D0539
:0E25D0006E057F05800791070895F894FFCFF0
:1025DE0001010100000000D2063C0669063F079A81
:1025EE000678068C060D0A006E616E00696E660036
:0425FE006F7666008E
:00000001FF
